:100000003BC05FC05EC05DC05CC05BC05AC059C031
:1000100058C049C456C0B6C490C453C052C051C0A1
:1000200050C04FC04EC000000000000000000003A0
:10003000040600000000000000000000000038007E
:1000400035003200000000003700340031000404A5
:100050000404040404040202020202020303030370
:10006000030301020408102040800102040810204C
:10007000010204081020F40411241FBECFE5D4E0CF
:10008000DEBFCDBF10E0A0E6B0E0E6EFF3E102C0D6
:1000900005900D92AC39B107D9F721E0ACE9B0E099
:1000A00001C01D92A135B207E1F710E0CCE3D0E02A
:1000B00003C02197FE0193D7CB33D107D1F7DDD40D
:1000C00098C99ECF90E0FC01EE59FF4F2491FC01AE
:1000D000E25BFF4F8491882399F090E0880F991F8D
:1000E000FC01EC5BFF4FA591B491FC01E65CFF4F76
:1000F000859194918FB7F894EC91E22BEC938FBF9C
:1001000008952FB7F8948091A1009091A200A0913A
:10011000A300B091A4002FBF8093AD009093AE00D8
:10012000A093AF00B093B000E091A500F091A600BD
:100130000084F185E02D85EA90E0099597FF26C0BF
:100140002FB7F8948091A1009091A200A091A300F4
:10015000B091A4002FBF4091AD005091AE006091CE
:10016000AF007091B000841B950BA60BB70B4091AC
:10017000A9005091AA006091AB007091AC00841767
:100180009507A607B70780F28FEF9FEF089590E0DD
:10019000FC01EA5DFF4F3491FC01EE59FF4F2491C1
:1001A000FC01E25BFF4FE491EE2331F1332381F058
:1001B000343039F0363049F0333051F48FB58F7721
:1001C00002C08FB58F7D8FBD03C085B58F7D85BD86
:1001D000F0E0EE0FFF1FE65CFF4FA591B4918FB7E3
:1001E000F894611105C09C91E22FE095E92302C0CB
:1001F000EC91E22BEC938FBF08951F93CF93DF9385
:10020000182FEB015FDF209711F460E004C0CF3FAF
:10021000D10531F461E0812FDF91CF911F91B7CFEC
:10022000E12FF0E0EA5DFF4FE491E43051F0E63079
:1002300071F0E33089F48FB580688FBDDBBDCABD36
:100240000FC08FB580628FBDD9BDC8BD09C085B54F
:10025000806285BDC3BD04C0C038D105DCF6D5CFF2
:10026000DF91CF911F9108953FB7F89480919D0041
:1002700090919E00A0919F00B091A00022B708B677
:1002800000FE05C02F3F19F00196A11DB11D3FBF13
:10029000BA2FA92F982F8827820F911DA11DB11D5C
:1002A000BC01CD0142E0660F771F881F991F4A9558
:1002B000D1F70895CF92DF92EF92FF920F931F93A1
:1002C000CF93DF936C017A018B01C0E0D0E0CE15B3
:1002D000DF0589F0D8016D918D01D601ED91FC917A
:1002E0000190F081E02DC6010995892B11F47E0162
:1002F00002C02196ECCFC701DF91CF911F910F91E2
:10030000FF90EF90DF90CF900895FC01918D828D4A
:10031000981761F0828DDF01A80FB11D5D968C9159
:10032000928D9F5F9F73928F90E008958FEF9FEF64
:100330000895FC01918D828D981731F0828DE80F20
:10034000F11D858D90E008958FEF9FEF0895FC01DA
:10035000918D228D892F90E0805C9F4F821B9109A7
:100360008F739927089585EA90E0F1DF21E0892BCA
:1003700009F420E0822F0895FC01848DDF01A80F8D
:10038000B11DA35ABF4F2C91848D90E001968F73BD
:100390009927848FA689B7892C93A089B1898C91DC
:1003A00080648C93938D848D981306C00288F389A2
:1003B000E02D80818F7D80830895EF92FF920F93CF
:1003C0001F93CF93DF93EC0181E0888F9B8D8C8D01
:1003D000981305C0E889F989808185FD23C0F62E30
:1003E0000B8D10E00F5F1F4F0F731127E02E8C8DC8
:1003F000E8120BC00FB607FCFACFE889F9898081B3
:1004000085FFF5CFCE01B8DFF2CF8B8DFE01E80F6F
:10041000F11DE35AFF4FF0820B8FEA89FB8980813F
:10042000806207C0EE89FF896083E889F98980814D
:100430008064808381E090E0DF91CF911F910F91E4
:10044000FF90EF900895CF93DF93EC01888D882380
:10045000C1F0EA89FB89808185FD05C0A889B98939
:100460008C9186FD0EC00FB607FCF5CF808185FF0D
:10047000F2CFA889B9898C9185FFEDCFCE017CDFC1
:10048000E8CFDF91CF91089580E090E0892B19F0BB
:100490006ADF8111B5CD089598D70F931F93CF933D
:1004A000DF93EC0188819981009729F02A813B81B3
:1004B0002617370780F48B016F5F7F4FC3D60097F5
:1004C00061F0998388831B830A832C813D81232BD0
:1004D00011F4FC01108281E001C080E0DF91CF9136
:1004E0001F910F910895EF92FF920F931F93CF9357
:1004F000DF93FC01248135816115710511F480E0E1
:1005000017C04115510599F07B01EC018A01020FDA
:10051000131FB801C2DF882391F3288139818C81B0
:100520009D81B701820F931F5DD71D830C8381E0EE
:10053000DF91CF911F910F91FF90EF900895CF938E
:10054000DF93EC0188819981009709F0E3D5198246
:1005500018821D821C821B821A82DF91CF9108951E
:10056000CF93DF93EC016115710559F0FB01019008
:100570000020E9F73197AF01461B570BB4DF81111B
:1005800002C0CE01DCDFCE01DF91CF910895CF9381
:10059000DF93EC01FB014481558160817181A3DF10
:1005A000811102C0CE01CBDFCE01DF91CF91089542
:1005B000EF92FF920F931F93CF93DF93EC017B0198
:1005C0008A01BA016ADF811103C0CE01B8DF06C01B
:1005D0001D830C83B7018881998104D7CE01DF91F7
:1005E000CF911F910F91FF90EF900895CF93DF93DC
:1005F000EC01FB018617970751F06081718161154D
:10060000710521F044815581D3DF01C098DFCE010F
:10061000DF91CF910895FC01808191817BC5EF929C
:10062000FF920F931F93CF93DF93CDB7DEB76297FF
:100630000FB6F894DEBF0FBECDBF8C01CB01F80121
:1006400011821082138212821582148250E09E0160
:100650002F5F3F4F7901B901EAD3F70101900020E4
:10066000E9F73197AF014E195F09B701C801A0DF63
:1006700062960FB6F894DEBF0FBECDBFDF91CF916B
:100680001F910F91FF90EF900895EF92FF920F93BB
:100690001F93CF93DF93CDB7DEB729970FB6F894AA
:1006A000DEBF0FBECDBF8C01862FF80111821082F4
:1006B000138212821582148250E09E012F5F3F4FF9
:1006C0007901B90190E0C7D3F70101900020E9F763
:1006D0003197AF014E195F09B701C80169DF29964B
:1006E0000FB6F894DEBF0FBECDBFDF91CF911F9143
:1006F0000F91FF90EF900895AF92BF92CF92DF924B
:10070000EF92FF920F931F93CF93DF93CDB7DEB796
:10071000C154D1090FB6F894DEBF0FBECDBF5C0146
:10072000CFAAD8AEE9AEFAAE0BAF1CAF4FAF219651
:100730005FAF219722966FAF22976BAD7CAD4AE0F9
:10074000CE010D966CDF4AE022966FAD2297CE0166
:1007500043969BDF69AD7AAD4AE0CE0149965FDFF3
:100760004AE021966FAD2197CE014F968EDF6FA99B
:1007700078AD4AE0CE01859652DF4AE06FADCE01FA
:100780008B9683DF1AAA19AA1CAA1BAA1EAA1DAA45
:10079000B501CE01C1962ADF62E970E0CE01C196B3
:1007A000DFDE6CE770E0DCDEBE01655D7F4FEFDE13
:1007B00060E870E0D5DEBE016B5D7F4FE8DE69E882
:1007C00070E0CEDEBE01615E7F4FE1DE60E870E08A
:1007D000C7DEBE01675E7F4FDADE6FE870E0C0DE25
:1007E000BE016D5E7F4FD3DE60E870E0B9DEBE0112
:1007F000635F7F4FCCDE18861F821A8619861C869F
:100800001B86BC01CE010796F1DE1A8219821C827A
:100810001B821E821D82BE01695F7F4FCE01019641
:10082000E5DE4D815E8169817A8185EA90E042DD75
:10083000CE010196F0DECE010796EDDECE01C19627
:10084000EADECE018B96E7DECE018596E4DECE01B0
:100850004F96E1DECE014996DEDECE014396DBDE29
:10086000CE010D96D8DE40E050E067E970E085EA01
:1008700090E020DD42E050E065E970E085EA90E03C
:1008800019DDCF5BDF4F0FB6F894DEBF0FBECDBFD3
:10089000DF91CF911F910F91FF90EF90DF90CF905C
:1008A000BF90AF9008951F920F920FB60F92112430
:1008B0002F933F938F939F93AF93BF938091A1000A
:1008C0009091A200A091A300B091A40030919C004F
:1008D00023E0230F2D3720F40196A11DB11D05C083
:1008E00026E8230F0296A11DB11D20939C00809342
:1008F000A1009093A200A093A300B093A4008091C4
:100900009D0090919E00A0919F00B091A000019643
:10091000A11DB11D80939D0090939E00A0939F0008
:10092000B093A000BF91AF919F918F913F912F9174
:100930000F900FBE0F901F9018951F920F920FB639
:100940000F9211242F933F934F935F936F937F9355
:100950008F939F93AF93BF93EF93FF9385EA90E0BC
:100960000BDDFF91EF91BF91AF919F918F917F919F
:100970006F915F914F913F912F910F900FBE0F900C
:100980001F9018951F920F920FB60F9211242F935C
:100990008F939F93EF93FF93E091B500F091B60092
:1009A0008081E091BB00F091BC0082FD12C090817B
:1009B0008091BE008F5F8F732091BF00821751F02E
:1009C000E091BE00F0E0EB55FF4F958F8093BE00A5
:1009D00001C08081FF91EF919F918F912F910F9096
:1009E0000FBE0F901F901895CF93DF93E5EAF0E0CC
:1009F0001382128288EE93E0A0E0B0E084839583B6
:100A0000A683B78380E790E09183808380E490E0C1
:100A10009587848729E230E0378726872BE230E00C
:100A2000318B208B2AE230E0338B228B958B848BA9
:100A30008CE290E0978B868B118E128E138E148E23
:100A4000C2E4D1E0188619861A868AE090E099837C
:100A5000888386E090E09B838A8385E090E09D8395
:100A60008C8381E090E09F838E838AE02BDB8A81F8
:100A700029DB8C81DF91CF9125CBCF93DF93CDB74D
:100A8000DEB72A970FB6F894DEBF0FBECDBF7894BD
:100A900083B7826083BF83B7816083BF89B781607A
:100AA00089BF1EBC8EB582608EBD8EB581608EBD45
:100AB0008FB581608FBD85B5846085BD85B5806447
:100AC00085BD329A319A309A379A1AB8E091B500BA
:100AD000F091B60082E08083E091B100F091B20025
:100AE0001082E091B300F091B4008FEC80831092FB
:100AF000BD00E091B900F091BA0086E88083E091F2
:100B0000B700F091B800808180618083E091B700E8
:100B1000F091B800808188608083E091B700F09107
:100B2000B800808180688083E091B700F091B800C0
:100B300080818F7D8083412C512C32014A94222464
:100B40002A94312C67D16B017C0164D14B015C018B
:100B500061D1A3019201B2D1162F60934A01C50160
:100B6000B401A3019201AAD160934B01C701B60160
:100B7000A3019201A3D160934C018091480190910F
:100B80004901892B89F4612F70E08091420135DBA6
:100B900060914B0170E0809144012FDB60914C012A
:100BA00070E08091460129DB8091480190914901D4
:100BB0000197C1F480914A01B101681B71098091CC
:100BC00042011BDB80914B01B101681B71098091CF
:100BD000440113DB80914C01B101681B71098091C4
:100BE00046010BDB85EA90E0B2DB181619060CF023
:100BF00050C085EA90E0ABDB803491050CF049C031
:100C000080DAFC0197FD11C08D32910591F0C097FB
:100C10000A9778F0E091A500F091A6000680F78190
:100C2000E02D85EA90E00995EBCFC12CD12C76011F
:100C30002CC020E030E0A90110E0E130F10509F01E
:100C400080C0E091A500F091A6000680F781E02D1C
:100C500085EA90E02F83388749875A87099551DACA
:100C6000FC01C0972F81388549855A850A9728F35A
:100C7000E130F10511F3112309F47FC0CC24DD2408
:100C80007601C21AD30AE40AF50AD0926100C09232
:100C900060001A8219821C821B821E821D8243E020
:100CA00050E068E970E0CE01019682DCC09042011C
:100CB000D0904301E0904401F0904501009146013D
:100CC00010914701209148013091490140914A011A
:100CD00050914B0160914C01CE0101960DDDCE018A
:100CE000019699DCC0906000D09061000D2C000C42
:100CF000EE08FF08B9DA4B015C01C114D104E1042C
:100D0000F104E9F0B1DADC01CB0188199909AA09EB
:100D1000BB09883E9340A105B10578F321E0C21AD2
:100D2000D108E108F10888EE880E83E0981EA11C26
:100D3000B11CC114D104E104F10421F7DECFA4DB1E
:100D400001CFED32F105B9F0CF01C0970A9708F055
:100D500078CFAAE0B0E0CED06F01FF0FEE08FF0819
:100D6000C60ED71EE81EF91EA701960120533109B1
:100D70004109510966CF11E064CF69017A0185CF3D
:100D80008F929F92AF92BF92CF92DF92EF92FF929B
:100D9000CF93DF93EC01688179818A819B81611512
:100DA00071058105910521F464E279ED8BE597E009
:100DB0002DE133EF41E050E081D049015A019B0120
:100DC000AC01A7EAB1E496D06B017C01ACEEB4EFC4
:100DD000A50194019BD0DC01CB018C0D9D1DAE1DA6
:100DE000BF1DB7FF03C00197A109B048888399834D
:100DF000AA83BB83BC01CD019F77DF91CF91FF9088
:100E0000EF90DF90CF90BF90AF909F908F9008951C
:100E1000B7DF089582E690E0B3DF08956093620043
:100E20007093630080936400909365000895453249
:100E3000510518F4423008F004C0FB011082CB01C8
:100E40000895BB274A3031F4992322F4BDE29095EE
:100E500081959F4F0BC04532510518F4423008F080
:100E600004C0FB011082CB010895BB27FB0155276D
:100E7000AA27880F991FAA1FA41710F0A41B8395F7
:100E80005051B9F7A05DAA3308F0A95DA19300976E
:100E900079F7B111B1931192CB0100C0DC01FC01D3
:100EA000672F71917723E1F7329704C07C916D939E
:100EB00070836291AE17BF07C8F30895052E97FBA4
:100EC00016F400940FD057FD05D05BD007FC02D07C
:100ED00046F408C050954095309521953F4F4F4FAF
:100EE0005F4F089590958095709561957F4F8F4FD6
:100EF0009F4F089568D0A59F900DB49F900DA49F1B
:100F0000800D911D11240895B7FFF4CFF3DF821BEC
:100F1000930B08952F923F924F925F926F927F9220
:100F20008F929F92AF92BF92CF92DF92EF92FF92F9
:100F30000F931F93CF93DF93CDB7DEB7CA1BDB0BA5
:100F40000FB6F894DEBF0FBECDBF09942A8839884A
:100F500048885F846E847D848C849B84AA84B98451
:100F6000C884DF80EE80FD800C811B81AA81B9815D
:100F7000CE0FD11D0FB6F894DEBF0FBECDBFED0171
:100F80000895A1E21A2EAA1BBB1BFD010DC0AA1FCA
:100F9000BB1FEE1FFF1FA217B307E407F50720F0E2
:100FA000A21BB30BE40BF50B661F771F881F991F5D
:100FB0001A9469F760957095809590959B01AC01A6
:100FC000BD01CF010895A29FB001B39FC001A39FAF
:100FD00001D0B29F700D811D1124911D0895EE0F57
:100FE000FF1F0590F491E02D0994CF93DF93823099
:100FF000910510F482E090E0E0914F01F0915001F2
:1010000020E030E0C0E0D0E0309711F14081518124
:1010100048175907C0F04817590761F48281938136
:10102000209719F09B838A832BC090935001809363
:101030004F0126C02115310519F04217530718F446
:101040009A01BE01DF01EF010280F381E02DDCCFC8
:101050002115310509F1281B390B2430310590F495
:1010600012968D919C9113976115710521F0FB01EA
:101070009383828304C09093500180934F01FD01BC
:10108000329644C0FD01E20FF31F819391932250E9
:1010900031092D933C933AC020914D0130914E017E
:1010A000232B41F4209168003091690030934E0168
:1010B00020934D0120916600309167002115310584
:1010C00041F42DB73EB740916A0050916B00241B4C
:1010D000350BE0914D01F0914E01E217F307A0F4BA
:1010E0002E1B3F0B2817390778F0AC014E5F5F4F7E
:1010F0002417350748F04E0F5F1F50934E01409361
:101100004D018193919302C0E0E0F0E0CF01DF91C7
:10111000CF9108950F931F93CF93DF93009709F416
:101120008CC0FC0132971382128200914F01109102
:1011300050010115110581F420813181820F931F27
:1011400020914D0130914E012817390779F5F09320
:101150004E01E0934D0171C0D80140E050E0AE1760
:10116000BF0750F412962D913C911397AD012115B4
:10117000310509F1D901F3CF9D01DA0133832283CF
:1011800060817181860F971F8217930769F4EC01C4
:1011900028813981260F371F2E5F3F4F31832083EF
:1011A0008A819B8193838283452B29F4F09350019C
:1011B000E0934F0142C01396FC93EE931297ED011A
:1011C000499159919E01240F351FE217F30771F4DD
:1011D00080819181840F951F029611969C938E9326
:1011E0008281938113969C938E931297E0E0F0E0B6
:1011F000D80112968D919C911397009719F0F801E0
:101200008C01F6CF8D919C9198012E5F3F4F820FFC
:10121000931F20914D0130914E012817390769F431
:10122000309729F41092500110924F0102C013829E
:10123000128210934E0100934D01DF91CF911F91C7
:101240000F910895A0E0B0E0E7E2F9E067CEEC018D
:10125000009719F4CB01C9DEB4C0FC01E60FF71FFB
:101260009C0122503109E217F30708F4A8C0D90104
:101270000D911C91119706171707A8F0053011055D
:1012800008F49BC0C80104978617970708F495C017
:1012900002501109061B170B019311936D937C9358
:1012A000CF0138DF8AC05B01A01AB10A4C01800E61
:1012B000911EA0914F01B091500140E050E0E12C0F
:1012C000F12C109709F44AC0A815B905D1F56D9015
:1012D0007C901197630182E0C80ED11CCA14DB0414
:1012E00080F1A3014A195B096A0182E0C80ED11C92
:1012F0001296BC9012971396AC91B5E0CB16D10420
:1013000040F0B282A38351834083D9016D937C93D3
:101310000AC00E5F1F4FC301800F911FF901918317
:101320008083EB2DFA2FE114F10431F0D7011396ED
:10133000FC93EE93129741C0F0935001E0934F015C
:101340003CC08D919C9111974817590708F4AC0146
:101350007D0112960D90BC91A02DB3CF80914D01CF
:1013600090914E0188159905E1F446175707C8F486
:101370008091660090916700009741F48DB79EB709
:1013800040916A0050916B00841B950BE817F90798
:10139000B0F4F0934E01E0934D01F9017183608345
:1013A0000CC0CB0122DE7C01009749F0A801BE01F0
:1013B00010D0CE01AFDEC70104C0CE0102C080E074
:1013C00090E0CDB7DEB7EEE0C5CD81E090E0F894D7
:1013D00010C0FB01DC0102C001900D924150504051
:1013E000D8F70895FB01DC0101900D920020E1F790
:0613F0000895F894FFCF00
:1013F600F40101000000000051018000000000001F
:10140600DD015A01A701850199012302523A200004
:10141600206F6E2050696E20000909473A200009A6
:0C14260009423A20000D0A004C45440029
:00000001FF
