:1000000041C065C064C063C062C061C060C05FC001
:100010005EC064C35CC0D1C3ABC359C058C057C035
:1000200056C055C054C000000000370034003100F5
:1000300000000000380035003200000000003600EB
:100040003300300004040404040404040202020225
:10005000020203030303030301020408102040808B
:100060000102040810200102040810200000000012
:100070000000000000030406000000000000000073
:100080000F04FE0911241FBECFE5D4E0DEBFCDBFB3
:1000900021E0AAE1B1E001C01D92A83EB207E1F75C
:1000A00011E0A0E6B0E0E0E0F9E102C005900D92B9
:1000B000AA31B107D9F710E0C1E4D0E003C021971D
:1000C000FE0108DAC034D107D1F7E7D30DCC98CFC1
:1000D000843039F0863049F0833051F48FB58F7712
:1000E00002C08FB58F7D8FBD089585B58F7D85BD8D
:1000F0000895CF93DF93282F30E0F901E459FF4FA3
:100100008491F901E85AFF4FD491F901EC5BFF4F5C
:10011000C491CC2389F08111DBDFEC2FF0E0EE0FEE
:10012000FF1FE65CFF4FA591B491EC91ED2381E0B8
:1001300090E021F480E002C080E090E0DF91CF9178
:1001400008951F93CF93DF93282F30E0F901E459EE
:10015000FF4F8491F901E85AFF4FD491F901EC5B0C
:10016000FF4FC491CC23C1F0162F8111B1DFEC2FCA
:10017000F0E0EE0FFF1FE05DFF4FA591B4918FB748
:10018000F894111105C09C91ED2FE095E92302C070
:10019000EC91ED2BEC938FBFDF91CF911F910895E0
:1001A000CF93DF9390E0FC01E85AFF4F2491FC01CC
:1001B000EC5BFF4F8491882361F190E0880F991FD9
:1001C000FC01EA5DFF4FC591D491FC01E05DFF4F5A
:1001D000A591B491611109C09FB7F89488812095C9
:1001E00082238883EC912E230BC0623061F49FB789
:1001F000F8943881822F809583238883EC912E2B6D
:100200002C939FBF06C08FB7F894E8812E2B2883CC
:100210008FBFDF91CF9108953FB7F89480912B0164
:1002200090912C01A0912D01B0912E0122B708B61A
:1002300000FE05C02F3F19F00196A11DB11D3FBF63
:10024000BA2FA92F982F8827820F911DA11DB11DAC
:10025000BC01CD0142E0660F771F881F991F4A95A8
:10026000D1F708958F929F92AF92BF92CF92DF9273
:10027000EF92FF926B017C01CFDF4B015C01C11457
:10028000D104E104F104E9F0C7DFDC01CB018819F6
:100290009909AA09BB09883E9340A105B10578F3E5
:1002A00021E0C21AD108E108F10888EE880E83E047
:1002B000981EA11CB11CC114D104E104F10421F762
:1002C000DECFFF90EF90DF90CF90BF90AF909F90E8
:1002D0008F9008952FB7F8946091270170912801AD
:1002E0008091290190912A012FBF0895CF92DF922A
:1002F000EF92FF920F931F93CF93DF936C017A01DC
:100300008B01C0E0D0E0CE15DF0589F0D8016D91FA
:100310008D01D601ED91FC910190F081E02DC60197
:100320000995892B11F47E0102C02196ECCFC701FB
:10033000DF91CF911F910F91FF90EF90DF90CF90C1
:100340000895FC01918D828D981761F0828DDF01F7
:10035000A80FB11D5D968C91928D9F5F9F73928FB8
:1003600090E008958FEF9FEF0895FC01918D828DAD
:10037000981731F0828DE80FF11D858D90E008957A
:100380008FEF9FEF0895FC01918D228D892F90E0D2
:10039000805C9F4F821B91098F73992708958FE28C
:1003A00091E0F1DF21E0892B09F420E0822F08950C
:1003B000FC01848DDF01A80FB11DA35ABF4F2C9102
:1003C000848D90E001968F739927848FA689B789D1
:1003D0002C93A089B1898C9180648C93938D848DAA
:1003E000981306C00288F389E02D80818F7D808379
:1003F0000895EF92FF920F931F93CF93DF93EC0139
:1004000081E0888F9B8D8C8D981305C0E889F989D0
:10041000808185FD23C0F62E0B8D10E00F5F1F4FEE
:100420000F731127E02E8C8DE8120BC00FB607FC5E
:10043000FACFE889F989808185FFF5CFCE01B8DF51
:10044000F2CF8B8DFE01E80FF11DE35AFF4FF082D2
:100450000B8FEA89FB898081806207C0EE89FF8962
:100460006083E889F98980818064808381E090E0FD
:10047000DF91CF911F910F91FF90EF900895CF934F
:10048000DF93EC01888D8823C1F0EA89FB898081A4
:1004900085FD05C0A889B9898C9186FD0EC00FB66F
:1004A00007FCF5CF808185FFF2CFA889B9898C91AF
:1004B00085FFEDCFCE017CDFE8CFDF91CF910895AE
:1004C00080E090E0892B19F06ADF811199CD0895C1
:1004D00060E037CE8CE090E0FBDF82E090E0F8DF78
:1004E0008DE090E0F5CFCF93DF9340E050E069E7F7
:1004F00070E08FE291E0FADEEC0142E050E067E765
:1005000070E08FE291E0F2DE8C0F9D1FDF91CF91C2
:100510000895D6D90F931F93CF93DF93EC01888171
:100520009981009729F02A813B812617370780F4AB
:100530008B016F5F7F4F01D9009761F099838883AA
:100540001B830A832C813D81232B11F4FC01108233
:1005500081E001C080E0DF91CF911F910F9108955C
:10056000EF92FF920F931F93CF93DF93FC012481AF
:1005700035816115710511F480E017C041155105F1
:1005800099F07B01EC018A01020F131FB801C2DF51
:10059000882391F3288139818C819D81B701820F55
:1005A000931F9BD91D830C8381E0DF91CF911F9115
:1005B0000F91FF90EF900895CF93DF93EC01888126
:1005C0009981009709F021D8198218821D821C8216
:1005D0001B821A82DF91CF910895CF93DF93EC01B4
:1005E0006115710559F0FB0101900020E9F7319781
:1005F000AF01461B570BB4DF811102C0CE01DCDF17
:10060000CE01DF91CF910895EF92FF920F931F9348
:10061000CF93DF93EC017B018A01BA017BDF81116B
:1006200003C0CE01C9DF06C01D830C83B7018881DA
:10063000998153D9CE01DF91CF911F910F91FF90F6
:10064000EF900895CF93DF93EC01FB018617970796
:1006500051F0608171816115710521F044815581EE
:10066000D3DF01C0A9DFCE01DF91CF910895FC0156
:100670001182108213821282158214826115710513
:1006800049F0FB0101900020E9F73197AF01461BCB
:10069000570BBACF0895FC0180819181B6C7CF93E3
:1006A000DF9300D000D000D0CDB7DEB7BC01CE01C3
:1006B0000196DDDF4D815E8169817A818FE291E073
:1006C00015DECE010196E7DF0EDF26960FB6F89411
:1006D000DEBF0FBECDBFDF91CF9108951F920F9265
:1006E0000FB60F9211242F933F938F939F93AF9345
:1006F000BF938091270190912801A0912901B09189
:100700002A013091260123E0230F2D3720F4019692
:10071000A11DB11D05C026E8230F0296A11DB11D24
:10072000209326018093270190932801A09329010B
:10073000B0932A0180912B0190912C01A0912D0161
:10074000B0912E010196A11DB11D80932B019093B4
:100750002C01A0932D01B0932E01BF91AF919F91D9
:100760008F913F912F910F900FBE0F901F90189572
:100770001F920F920FB60F9211242F933F934F9316
:100780005F936F937F938F939F93AF93BF93EF93F9
:10079000FF938FE291E00CDEFF91EF91BF91AF915B
:1007A0009F918F917F916F915F914F913F912F9189
:1007B0000F900FBE0F901F9018951F920F920FB6BB
:1007C0000F9211242F938F939F93EF93FF93E091B8
:1007D0003F01F09140018081E0914501F091460197
:1007E00082FD12C09081809148018F5F8F732091AC
:1007F0004901821751F0E0914801F0E0E15DFE4FC0
:10080000958F8093480101C08081FF91EF919F9166
:100810008F912F910F900FBE0F901F901895EFE2C0
:10082000F1E01382128288EE93E0A0E0B0E08483CE
:100830009583A683B7838BE690E09183808380E4E1
:1008400090E09587848729E230E0378726872BE27E
:1008500030E0318B208B2AE230E0338B228B958B7A
:10086000848B8CE290E0978B868B118E128E138E88
:10087000148E6AE770E08CEC91E0F9DE60E870E0DD
:1008800082ED91E0F4DE61E970E088ED91E0EFDE69
:1008900062EA70E08EED91E0EACECF93DF93CDB7C0
:1008A000DEB7A1970FB6F894DEBF0FBECDBF789428
:1008B00083B7826083BF83B7816083BF89B781605C
:1008C00089BF1EBC8EB582608EBD8EB581608EBD27
:1008D0008FB581608FBD85B5846085BD85B5806429
:1008E00085BD329A319A309A379A1AB8E0913F0111
:1008F000F091400182E08083E0913B01F0913C0166
:100900001082E0913D01F0913E018FEC80831092C6
:100910004701E0914301F091440186E88083E09132
:100920004101F0914201808180618083E091410129
:10093000F0914201808188608083E0914101F091D3
:100940004201808180688083E0914101F091420101
:1009500080818F7D80838BEA90E0A1DE61E08CE076
:100960001FDC60E088E01CDC61E08DE019DC61E008
:1009700082E016DC04E110E061E08DE0E2DB62E39E
:1009800070E080E090E06EDC8DE090E0A1DD62E35D
:1009900070E080E090E066DC61E08CE0D2DB62E356
:1009A00070E080E090E05EDC8CE090E091DD62E35E
:1009B00070E080E090E056DC61E082E0C2DB62E360
:1009C00070E080E090E04EDC82E090E081DD62E368
:1009D00070E080E090E046DC0150110969F664EFB8
:1009E00071E080E090E03EDC1092250184EC90E024
:1009F00056DE11E086E0B82ECE0101967C0188E03B
:100A000078DB01E0892B09F400E000932501909147
:100A1000600080912401992309F4D0C0002309F4D7
:100A2000ADC4811128C056DC4090200150902101B6
:100A30006090220170902301DC01CB01841995099B
:100A4000A609B70987399105A105B105A0F0109352
:100A5000240140DC609320017093210180932201E6
:100A60009093230137DC60931C0170931D018093E8
:100A70001E0190931F018091240181113CC32ADC47
:100A8000409020015090210160902201709023013C
:100A9000DC01CB0184199509A609B70987399105AD
:100AA000A105B10508F427C31093240113DC60935A
:100AB00020017093210180932201909323010ADC8D
:100AC00060931C0170931D0180931E0190931F0180
:100AD00080911B018130A9F4FDDB409020015090F2
:100AE00021016090220170902301DC01CB01841967
:100AF0009509A609B7098F359140A105B10508F000
:100B00000CC380911B018230A9F4E4DB40902001EA
:100B1000509021016090220170902301DC01CB01F3
:100B200084199509A609B70987329240A105B10534
:100B300008F0FEC2CFDB4090200150902101609070
:100B4000220170902301DC01CB0184199509A609CB
:100B5000B709883E9340A105B10568F0BBDBDC0115
:100B6000CB0184199509A609B7098D399940A105CA
:100B7000B10508F4E8C2AEDB40901C0150901D01A5
:100B800060901E0170901F01DC01CB018419950952
:100B9000A609B70988389341A105B10508F4A9C28F
:100BA00099DBDC01CB0184199509A609B7098B36BD
:100BB0009841A105B10508F4D1C29BC2002309F4F4
:100BC000FDC3811128C086DB409020015090210197
:100BD0006090220170902301DC01CB0184199509FA
:100BE000A609B70987399105A105B105A0F01093B1
:100BF000240170DB60932001709321018093220116
:100C00009093230167DB60931C0170931D01809317
:100C10001E0190931F01809124018111B0C25ADB03
:100C2000409020015090210160902201709023019A
:100C3000DC01CB0184199509A609B709873991050B
:100C4000A105B10508F49BC21093240143DB609316
:100C500020017093210180932201909323013ADBBC
:100C600060931C0170931D0180931E0190931F01DE
:100C700080911B01833009F0B9C02CDC1092200157
:100C800010922101109222011092230110921B0157
:100C900080911A018F5F843018F480931A0102C08A
:100CA00010931A01C0901A01198A188A1B8A1A8A8D
:100CB0001D8A1C8AD12CBC9CB001BD9C700D1124D6
:100CC00064537E4FCE014096BDDC1F8A1E8A198E6A
:100CD000188E1B8E1A8E4AE0B701C6019BD3F7010E
:100CE00001900020E9F73197AF014E195F09B70174
:100CF000CE01469689DC67ED70E0CE014C96B7DCFC
:100D00004A8D5B8D6E897F89CE014C9629DC8111DD
:100D100003C0CE014C9650DC65EE70E0CE014C96DF
:100D20005CDC6C014C895D896889798919DC8111E9
:100D300002C0C60141DC68EE70E0C6014EDC1B86D5
:100D40001A861D861C861F861E86BC01CE010A9649
:100D500079DC1A8219821C821B821E821D82BE01CE
:100D6000665F7F4FC7016EDC4D815E8169817A814C
:100D70008FE291E0BBDAC7018EDCB5DBCE010A96CB
:100D80008ADCCE014C9687DCCE01469684DCCE010F
:100D9000409681DC80911A0190E08130910559F4F0
:100DA00061E08DE0CED96CED75E080E090E05ADA3C
:100DB0008DE090E01AC08230910559F461E08CE03A
:100DC000C0D96CED75E080E090E04CDA8CE090E00A
:100DD0000CC0039759F461E082E0B3D96CED75E083
:100DE00080E090E03FDA82E090E072DB80911A01CF
:100DF000813009F07CC080911B018130A9F46ADA4E
:100E000040902001509021016090220170902301B8
:100E1000DC01CB0184199509A609B7098F359140EA
:100E2000A105B10508F0BDC180911B018230A9F474
:100E300051DA409020015090210160902201709081
:100E40002301DC01CB0184199509A609B709873272
:100E50009240A105B10508F0BFC13CDA40902001E5
:100E6000509021016090220170902301DC01CB01A0
:100E700084199509A609B709883E9340A105B105D3
:100E800088F080912401882369F024DADC01CB0109
:100E900084199509A609B7098D399940A105B105AD
:100EA00008F4ADC117DA40901C0150901D0160900C
:100EB0001E0170901F01DC01CB0184199509A60960
:100EC000B70988389341A105B10588F080912401C4
:100ED000882369F0FFD9DC01CB0184199509A609A3
:100EE000B7098B369841A105B10508F493C18091EB
:100EF0001A01823009F07CC080911B018130A9F475
:100F0000E9D9409020015090210160902201709019
:100F10002301DC01CB0184199509A609B7098F3596
:100F20009140A105B10508F08BC180911B01823071
:100F3000A9F4D0D940902001509021016090220165
:100F400070902301DC01CB0184199509A609B7092A
:100F500087329240A105B10508F085C1BBD9409008
:100F60002001509021016090220170902301DC014A
:100F7000CB0184199509A609B709883E9340A105BC
:100F8000B10588F080912401882369F0A3D9DC01A0
:100F9000CB0184199509A609B7098D399940A10596
:100FA000B10508F47BC196D940901C0150901D01F9
:100FB00060901E0170901F01DC01CB01841995091E
:100FC000A609B70988389341A105B10588F0809139
:100FD0002401882369F07ED9DC01CB0184199509AD
:100FE000A609B7098B369841A105B10508F461C17E
:100FF00080911A01833009F07CC080911B018130FF
:10100000A9F468D9409020015090210160902201FC
:1010100070902301DC01CB0184199509A609B70959
:101020008F359140A105B10508F059C180911B0190
:101030008230A9F44FD94090200150902101609056
:10104000220170902301DC01CB0184199509A609C6
:10105000B70987329240A105B10508F053C13AD9CA
:101060004090200150902101609022017090230156
:10107000DC01CB0184199509A609B709883E934084
:10108000A105B10588F080912401882369F022D957
:10109000DC01CB0184199509A609B7098D3999405E
:1010A000A105B10508F441C115D940901C0150902B
:1010B0001D0160901E0170901F01DC01CB0184199D
:1010C0009509A609B70988389341A105B10588F0AB
:1010D00080912401882369F0FDD8DC01CB018419BB
:1010E0009509A609B7098B369841A105B10508F401
:1010F0002FC1E6D984CC0111EBCC80912401882347
:1011000009F4E6CC109224011092200110922101E2
:101110001092220110922301DBCC10922001109238
:101120002101109222011092230110921B01E9CC9F
:10113000109220011092210110922201109223019D
:1011400010921B01F7CC10921B01109220011092FB
:10115000210110922201109223010DCD1092600006
:1011600010921B0110921C0110921D0110921E0181
:1011700010921F0110931A018BEE90E0FDC0011137
:1011800077CD80912401882309F472CD1092240137
:10119000109220011092210110922201109223013D
:1011A00067CD8DE0A6D761E0892B09F060E08DE086
:1011B000C8D71092200110922101109222011092A2
:1011C000230110921C0110921D0110921E01109219
:1011D0001F0110921B0128CE1092200110922101B4
:1011E000109222011092230110921C0110921D01F5
:1011F00010921E0110921F0110921B012ECE109210
:101200001B011092200110922101109222011092D4
:10121000230148CE80916000812780936000109266
:101220001B0110921C0110921D0110921E011092C0
:101230001F0110931A014ED983E091E030DA57CEA6
:10124000109220011092210110922201109223018C
:1012500010921C0110921D0110921E0110921F018C
:1012600010921B0162CE8CE044D761E0892B09F01B
:1012700060E08CE066D7109220011092210110925C
:1012800022011092230110921C0110921D01109254
:101290001E0110921F0110921B0160CE10921B01C3
:1012A000109220011092210110922201109223012C
:1012B0007ACE8091600081278093600010921B019C
:1012C00010921C0110921D0110921E0110921F011C
:1012D00010931A01FFD883E091E0E1D989CE1092F2
:1012E00020011092210110922201109223011092EC
:1012F0001C0110921D0110921E0110921F011092EC
:101300001B0194CE10922001109221011092220113
:101310001092230110921C0110921D0110921E01C7
:1013200010921F0110921B019ACE82E0E2D661E07A
:10133000892B09F060E082E004D710921B01109223
:101340002001109221011092220110922301ACCEB3
:101350008091600081278093600010921B011092A1
:101360001C0110921D0110921E0110921F0110937A
:101370001A01B0D883E091E092D9BBCE882309F45A
:10138000BCCEA8D74090200150902101609022014E
:1013900070902301DC01CB0184199509A609B709D6
:1013A0008A389240A105B10508F0A7CE1092240119
:1013B00080911B018F5F80931B019FCE882309F4CE
:1013C000E0CE88D74090200150902101609022010A
:1013D00070902301DC01CB0184199509A609B70996
:1013E0008A389240A105B10508F0CBCE10922401B5
:1013F00080911B018F5F80931B01C3CE8EED91E026
:101400004AD988ED91E047D982ED91E044D98CEC3E
:1014100091E041C9BB27FB015527AA27880F991FD7
:10142000AA1FA41710F0A41B83955051B9F7A05D13
:10143000AA3308F0A95DA193009779F7B111B19390
:101440001192CB0100C0DC01FC01672F7191772361
:10145000E1F7329704C07C916D9370836291AE176F
:10146000BF07C8F308952F923F924F925F926F92F9
:101470007F928F929F92AF92BF92CF92DF92EF9224
:10148000FF920F931F93CF93DF93CDB7DEB7CA1BA5
:10149000DB0B0FB6F894DEBF0FBECDBF09942A88D0
:1014A000398848885F846E847D848C849B84AA8478
:1014B000B984C884DF80EE80FD800C811B81AA8105
:1014C000B981CE0FD11D0FB6F894DEBF0FBECDBFD0
:1014D000ED010895EE0FFF1F0590F491E02D0994A2
:1014E000CF93DF938230910510F482E090E0E09199
:1014F000E601F091E70120E030E0C0E0D0E0309775
:1015000011F14081518148175907C0F04817590718
:1015100061F482819381209719F09B838A832BC089
:101520009093E7018093E60126C02115310519F05B
:101530004217530718F49A01BE01DF01EF01028040
:10154000F381E02DDCCF2115310509F1281B390B82
:101550002430310590F412968D919C91139761156A
:10156000710521F0FB019383828304C09093E7010E
:101570008093E601FD01329644C0FD01E20FF31FA6
:1015800081939193225031092D933C933AC020913D
:10159000E4013091E501232B41F420916300309167
:1015A00064003093E5012093E401209161003091C3
:1015B00062002115310541F42DB73EB74091650019
:1015C00050916600241B350BE091E401F091E50198
:1015D000E217F307A0F42E1B3F0B2817390778F00A
:1015E000AC014E5F5F4F2417350748F04E0F5F1F69
:1015F0005093E5014093E4018193919302C0E0E0B0
:10160000F0E0CF01DF91CF9108950F931F93CF9317
:10161000DF93009709F48CC0FC0132971382128289
:101620000091E6011091E7010115110581F4208177
:101630003181820F931F2091E4013091E501281739
:10164000390779F5F093E501E093E40171C0D80121
:1016500040E050E0AE17BF0750F412962D913C9138
:101660001397AD012115310509F1D901F3CF9D0182
:10167000DA013383228360817181860F971F82177D
:10168000930769F4EC0128813981260F371F2E5FFB
:101690003F4F318320838A819B8193838283452BB3
:1016A00029F4F093E701E093E60142C01396FC931E
:1016B000EE931297ED01499159919E01240F351F28
:1016C000E217F30771F480819181840F951F0296D0
:1016D00011969C938E938281938113969C938E9303
:1016E0001297E0E0F0E0D80112968D919C9113974B
:1016F000009719F0F8018C01F6CF8D919C9198011B
:101700002E5F3F4F820F931F2091E4013091E5013E
:101710002817390769F4309729F41092E7011092DD
:10172000E60102C0138212821093E5010093E401E6
:10173000DF91CF911F910F910895A0E0B0E0E2EA10
:10174000FBE095CEEC01009719F4CB01C9DEB4C0E3
:10175000FC01E60FF71F9C0122503109E217F30745
:1017600008F4A8C0D9010D911C911197061717070D
:10177000A8F00530110508F49BC0C801049786172E
:10178000970708F495C002501109061B170B019327
:1017900011936D937C93CF0138DF8AC05B01A01A4F
:1017A000B10A4C01800E911EA091E601B091E701B3
:1017B00040E050E0E12CF12C109709F44AC0A81544
:1017C000B905D1F56D907C901197630182E0C80E48
:1017D000D11CCA14DB0480F1A3014A195B096A0118
:1017E00082E0C80ED11C1296BC9012971396AC9151
:1017F000B5E0CB16D10440F0B282A383518340837D
:10180000D9016D937C930AC00E5F1F4FC301800FF7
:10181000911FF90191838083EB2DFA2FE114F104DC
:1018200031F0D7011396FC93EE93129741C0F093D9
:10183000E701E093E6013CC08D919C911197481718
:10184000590708F4AC017D0112960D90BC91A02DB2
:10185000B3CF8091E4019091E50188159905E1F4F9
:1018600046175707C8F48091610090916200009775
:1018700041F48DB79EB74091650050916600841B7E
:10188000950BE817F907B0F4F093E501E093E40154
:10189000F901718360830CC0CB0122DE7C010097CB
:1018A00049F0A801BE0110D0CE01AFDEC70104C0CF
:1018B000CE0102C080E090E0CDB7DEB7EEE0F3CD20
:1018C00081E090E0F89410C0FB01DC0102C00190BF
:1018D0000D9241505040D8F70895FB01DC01019072
:1018E0000D920020E1F7089510E0C1E4D0E003C0BC
:1018F000FE01F0DD2196C234D107D1F7F894FFCF75
:10190000010000E801800000000000F9017601C339
:1019100001A101B5013F020D0A00536C656570001D
:1019200053696E676C652D636C69636B204C45442D
:1019300000446F75626C652D636C69636B204C4568
:101940004400486F6C64204C4544005379737465BF
:101950006D206D6F64653A205374617274696E67AF
:101960002075700053797374656D206D6F64653AEE
:101970002052656164790053797374656D206D6FD1
:1019800064653A2000202800292000456E746572A5
:10199000696E67206E6F726D616C206D6F64652E6D
:1019A0002E2E00456E746572696E6720736C6565D6
:0A19B00070206D6F64652E2E2E006E
:00000001FF
