:100000003CC060C05FC059C45DC05CC05BC05AC02A
:1000100059C009C457C0D1C4ABC454C053C052C0A6
:1000200051C050C04FC0000000000000000000039D
:10003000040600000000000000000200000000387C
:1000400000350032000000000037003400310004A9
:10005000040404040404040202020202020303036F
:100060000303030102040810204080010204081069
:1000700020010204081020007E0611241FBECFE5D7
:10008000D4E0DEBFCDBF21E0A6E9B0E001C01D9203
:10009000AE34B207E1F710E0A0E6B0E0E6EEF2E140
:1000A00002C005900D92A639B107D9F710E0CDE353
:1000B000D0E003C02197FE010AD7CC33D107D1F796
:1000C000AED40FC99DCFEFE6F0E02491EBE5F0E070
:1000D0008491882399F090E0880F991FFC01EB5BD5
:1000E000FF4FA591B491FC01E55CFF4F8591949180
:1000F0008FB7F894EC91E22BEC938FBF08958F9219
:100100009F92AF92BF92CF92DF92EF92FF92CF93E6
:10011000209162002C3021F02F3F09F071C104C002
:10012000EAE3F0E0C49148C02CE020936200EAE3E7
:10013000F0E0C491CF3F09F463C1C13001F1C23096
:1001400009F03AC015BC15BC25B5286025BD25B5FC
:10015000216025BDEBE5F0E0E491F0E0EE0FFF1F3C
:10016000E55CFF4F259134913093A1002093A000CE
:10017000EFE6F0E0E491E0939F00C2E01FC01FBCF7
:100180001EBC2EB528602EBD2EB521602EBDEBE520
:10019000F0E0E491F0E0EE0FFF1FE55CFF4F2591EA
:1001A00034913093A4002093A300EFE6F0E0E491B3
:1001B000E093A200C1E002C0C7FD22C14C0183DF71
:1001C000A12CB12C8C2F8D7F09F09DC060E072E1D5
:1001D0008AE790E0A50194013CD669017A01BA0151
:1001E000A90141505109610971094F3F510561054C
:1001F000710509F008F441C060E472E48FE090E01A
:10020000A501940126D6BA01A901415051096109FD
:100210007109C230D1F44F3F51056105710579F183
:1002200070F160E970ED83E090E0A501940111D6D2
:10023000BA01A90141505109610971094F3F5105A6
:100240006105710509F0E8F4D9C04F3F510561051A
:100250007105A9F0A0F068E478EE81E090E0A501D6
:100260009401F7D5BA01A9014150510961097109F9
:10027000CC2309F4AEC084E026C081E03FC082E018
:100280003DC068E478EE81E090E0A5019401E1D5FD
:10029000BA01A90141505109610971094F3F510546
:1002A0006105710509F008F47DC064E274EF80E037
:1002B00090E0A5019401CDD5BA01A90141505109A1
:1002C0006109710985E04F3F510561057105B1F084
:1002D000A8F062E17AE780E090E0A5019401B9D549
:1002E000BA01A901415051096109710986E04F3FE6
:1002F00051056105710511F008F056C095B5987F5C
:10030000892B85BD2AC060E072E18AE790E0A501F3
:1003100094019FD5BA01A9014150510961097109A0
:100320004115510581E06807710578F068E478EEC1
:1003300081E090E0A50194018CD5BA01A90141505A
:1003400051096109710993E001C091E0C13029F4BC
:100350008EB5887F892B8EBD14C0C13091F0C2301C
:1003600009F04EC043BD8FEF9FEFDC018093A500E5
:100370009093A600A093A700B093A80089B78068C7
:100380000FC05BBD4ABD8FEF9FEFDC018093A900DA
:100390009093AA00A093AB00B093AC0089B78061A2
:1003A00089BF2EC084E0AACFD701C6012AE0B59547
:1003B000A795979587952A95D1F7AC01BD01415036
:1003C000510961097109CC2311F087E097CF85E0CD
:1003D00095CF4F3F51056105710581F078F062E1DD
:1003E0007AE780E090E0A501940133D5BA01A90134
:1003F000415051096109710984E079CF83E07ECFD2
:10040000CF91FF90EF90DF90CF90BF90AF909F90F3
:100410008F9008952FB7F89480919B0090919C0045
:10042000A0919D00B0919E002FBF8093B500909346
:10043000B600A093B700B093B800E091AD00F09182
:10044000AE000084F185E02D8DEA90E0099597FFDC
:1004500026C02FB7F89480919B0090919C00A091AA
:100460009D00B0919E002FBF4091B5005091B60005
:100470006091B7007091B800841B950BA60BB70B69
:100480004091B1005091B2006091B3007091B400FE
:1004900084179507A607B70780F28FEF9FEF08959F
:1004A0009091620098131BC0EAE3F0E0E4919FEFA3
:1004B00090936200E13081F068F0E23081F499B706
:1004C0009F7799BF90E495BD95B5987F946095BD51
:1004D00013BC05C019BE03C099B79F7E99BF90E0B9
:1004E000FC01EA5DFF4F3491FC01ED59FF4F24916F
:1004F000FC01E15BFF4FE491EE2309F1332381F02E
:10050000343039F0363049F0333051F48FB58F77CD
:1005100002C08FB58F7D8FBD03C085B58F7D85BD32
:10052000F0E0EE0FFF1FE55CFF4FA591B4918FB790
:10053000F8949C91E22FE095E923EC938FBF089506
:10054000CF92DF92EF92FF920F931F93CF93DF939F
:100550006C017A018B01C0E0D0E0CE15DF0589F097
:10056000D8016D918D01D601ED91FC910190F08142
:10057000E02DC6010995892B11F47E0102C0219658
:10058000ECCFC701DF91CF911F910F91FF90EF90BA
:10059000DF90CF900895FC01918D828D981761F0C6
:1005A000828DDF01A80FB11D5D968C91928D9F5FAA
:1005B0009F73928F90E008958FEF9FEF0895FC0155
:1005C000918D828D981731F0828DE80FF11D858D08
:1005D00090E008958FEF9FEF0895FC01918D228D9B
:1005E000892F90E0805C9F4F821B91098F73992720
:1005F00008958DEA90E0F1DF21E0892B09F420E0F5
:10060000822F0895FC01848DDF01A80FB11DA35A2C
:10061000BF4F2C91848D90E001968F739927848F22
:10062000A689B7892C93A089B1898C9180648C9319
:10063000938D848D981306C00288F389E02D808104
:100640008F7D80830895EF92FF920F931F93CF9336
:10065000DF93EC0181E0888F9B8D8C8D981305C012
:10066000E889F989808185FD23C0F62E0B8D10E085
:100670000F5F1F4F0F731127E02E8C8DE8120BC0F8
:100680000FB607FCFACFE889F989808185FFF5CF9D
:10069000CE01B8DFF2CF8B8DFE01E80FF11DE35ADA
:1006A000FF4FF0820B8FEA89FB898081806207C04F
:1006B000EE89FF896083E889F9898081806480837D
:1006C00081E090E0DF91CF911F910F91FF90EF902B
:1006D0000895CF93DF93EC01888D8823C1F0EA89D8
:1006E000FB89808185FD05C0A889B9898C9186FD2B
:1006F0000EC00FB607FCF5CF808185FFF2CFA88929
:10070000B9898C9185FFEDCFCE017CDFE8CFDF91F9
:10071000CF91089580E090E0892B19F06ADF811174
:100720006FCC0895CF93DF9340E050E06BE770E02B
:100730008DEA90E005DFEC0142E050E069E770E00F
:100740008DEA90E0FDDE8C0F9D1FDF91CF91089523
:10075000B4D50F931F93CF93DF93EC0188819981D8
:10076000009729F02A813B812617370780F48B01F7
:100770006F5F7F4FDFD4009761F0998388831B837D
:100780000A832C813D81232B11F4FC01108281E02E
:1007900001C080E0DF91CF911F910F910895CF9319
:1007A000DF93EC0188819981009709F02BD419829D
:1007B00018821D821C821B821A82DF91CF910895BC
:1007C000EF92FF920F931F93CF93DF93EC017B0186
:1007D0008A01BA01BEDF811103C0CE01E0DF06C08D
:1007E0001D830C83B7018881998174D5CE01DF9177
:1007F000CF911F910F91FF90EF900895CF93DF93CA
:10080000EC01FB018617970751F06081718161153A
:10081000710521F044815581D3DF01C0C0DFCE01D5
:10082000DF91CF9108951F920F920FB60F9211246E
:100830002F933F938F939F93AF93BF9380919B0090
:1008400090919C00A0919D00B0919E0030919A00E3
:1008500023E0230F2D3720F40196A11DB11D05C003
:1008600026E8230F0296A11DB11D20939A008093C4
:100870009B0090939C00A0939D00B0939E0080915C
:10088000960090919700A0919800B09199000196E0
:10089000A11DB11D8093960090939700A09398009E
:1008A000B0939900BF91AF919F918F913F912F91FC
:1008B0000F900FBE0F901F9018951F920F920FB6BA
:1008C0000F9211242F933F934F935F936F937F93D6
:1008D0008F939F93AF93BF93EF93FF938091A50066
:1008E0009091A600A091A700B091A800892B8A2B17
:1008F0008B2B51F180919F00E091A000F091A1001D
:100900009081892780838091A5009091A600A09175
:10091000A700B091A800181619061A061B06BCF409
:100920008091A5009091A600A091A700B091A80089
:100930000197A109B1098093A5009093A600A09307
:10094000A700B093A80003C080916200A9DDFF91C9
:10095000EF91BF91AF919F918F917F916F915F9137
:100960004F913F912F910F900FBE0F901F901895B0
:100970001F920F920FB60F9211242F933F934F9314
:100980005F936F937F938F939F93AF93BF93EF93F7
:10099000FF938DEA90E036DEFF91EF91BF91AF912A
:1009A0009F918F917F916F915F914F913F912F9187
:1009B0000F900FBE0F901F9018951F920F920FB6B9
:1009C0000F9211242F938F939F93EF93FF93E091B6
:1009D000BD00F091BE008081E091C300F091C400A1
:1009E00082FD12C090818091C6008F5F8F7320912D
:1009F000C700821751F0E091C600F0E0E355FF4FC9
:100A0000958F8093C60001C08081FF91EF919F91E7
:100A10008F912F910F900FBE0F901F901895CF932D
:100A2000DF93CDB7DEB7A8970FB6F894DEBF0FBE41
:100A3000CDBF789483B7826083BF83B7816083BF63
:100A400089B7816089BF1EBC8EB582608EBD8EB5B0
:100A500081608EBD8FB581608FBD85B5846085BD99
:100A600085B5806485BD329A319A309A379A1AB822
:100A7000E091BD00F091BE0082E08083E091B9007A
:100A8000F091BA001082E091BB00F091BC008FECB5
:100A900080831092C500E091C100F091C20086E809
:100AA0008083E091BF00F091C000808180618083ED
:100AB000E091BF00F091C000808188608083E09168
:100AC000BF00F091C000808180688083E091BF000A
:100AD000F091C00080818F7D8083F5DA1A821982BF
:100AE0001C821B821E821D824DE050E06CE770E08C
:100AF0008E010F5F1F4FC80163DE4D815E816981EA
:100B00007A818DEA90E01CDD89819A817BD20ADEB0
:100B10008091600090916100F2DA8DEA90E05DDDF5
:100B2000181619060CF0C2C08DEA90E056DD80342C
:100B300091050CF0BBC06EDCFC0197FD11C08D323D
:100B4000910591F0C0970A9778F0E091AD00F0918F
:100B5000AE000680F781E02D8DEA90E00995EBCF9D
:100B600080E090E0DC012CC020E030E0A901F12C15
:100B7000E130F10509F0A0C0E091AD00F091AE00C8
:100B80000680F781E02D8DEA90E02DA33EA34FA3D0
:100B900058A709953FDCFC01C0972DA13EA14FA1AC
:100BA00058A50A9728F3E130F10511F3FF2009F465
:100BB000A2C088279927DC01821B930BA40BB50BDD
:100BC00090936100809360001A8E198E1C8E1B8E8C
:100BD0001E8E1D8E4AE0B801BCD0F80101900020A5
:100BE000E9F73197AF01401B510BB801CE0149968F
:100BF000E7DD1C8A1B8A1E8A1D8A188E1F8A4BE01D
:100C000050E06AE870E0CE014396DADD8D8D9E8D6E
:100C1000C98CDA8CEF88F88CC114D10409F448C06F
:100C2000009791F0E80EF91EB701CE01439691DDD1
:100C30008823F1F12B893C898F89988DB601820F29
:100C4000931F48D3F88EEF8A18A21F8E1AA219A2FA
:100C50001CA21BA2BE016D5E7F4FCE014F96CEDD62
:100C60001A8219821C821B821E821D82BE01615E55
:100C70007F4FC801C3DD4D815E8169817A818DEA34
:100C800090E05EDC89819A81BDD14CDD8F8D98A189
:100C9000B9D18B899C89B6D1898D9A8DB3D18CE0DD
:100CA000FFDB809160009091610029DA33DD35CF60
:100CB000CE01439674DDC8CFED32F105C9F0CF0106
:100CC000C0970A9708F058CFAAE0B0E075D04F015E
:100CD000FF0FAA08BB08DC01CB01880D991DAA1DD6
:100CE000BB1D9C01AD01205331094109510944CF7D
:100CF000FF24F39441CFDA01C90162CFEDEAF0E0BD
:100D00001382128288EE93E0A0E0B0E084839583A2
:100D1000A683B7838DE690E09183808380E490E0A2
:100D20009587848729E230E0378726872BE230E0F9
:100D3000318B208B2AE230E0338B228B958B848B96
:100D40008CE290E0978B868B118E128E138E148E10
:100D50000895BB274A3031F4992322F4BDE29095DF
:100D600081959F4F01C0BB27FB015527AA27880FFC
:100D7000991FAA1FA41710F0A41B83955051B9F70F
:100D8000A05DAA3308F0A95DA193009779F7B1118E
:100D9000B1931192CB0100C0DC01FC01672F71916E
:100DA0007723E1F7329704C07C916D937083629151
:100DB000AE17BF07C8F3089540D0A59F900DB49F0C
:100DC000900DA49F800D911D112408952F923F92A4
:100DD0004F925F926F927F928F929F92AF92BF924B
:100DE000CF92DF92EF92FF920F931F93CF93DF93F7
:100DF000CDB7DEB7CA1BDB0B0FB6F894DEBF0FBE54
:100E0000CDBF09942A88398848885F846E847D84A0
:100E10008C849B84AA84B984C884DF80EE80FD80A2
:100E20000C811B81AA81B981CE0FD11D0FB6F89418
:100E3000DEBF0FBECDBFED010895A29FB001B39FED
:100E4000C001A39F01D0B29F700D811D1124911D7F
:100E50000895052E97FB16F400940FD057FD05D08A
:100E600014D007FC02D046F408C050954095309548
:100E700021953F4F4F4F5F4F089590958095709506
:100E800061957F4F8F4F9F4F0895A1E21A2EAA1BA5
:100E9000BB1BFD010DC0AA1FBB1FEE1FFF1FA2172A
:100EA000B307E407F50720F0A21BB30BE40BF50B27
:100EB000661F771F881F991F1A9469F760957095B0
:100EC000809590959B01AC01BD01CF010895EE0F77
:100ED000FF1F0590F491E02D0994CF93DF938230AA
:100EE000910510F482E090E0E0914C01F0914D0109
:100EF00020E030E0C0E0D0E0309711F14081518136
:100F000048175907C0F04817590761F48281938147
:100F1000209719F09B838A832BC090934D01809377
:100F20004C0126C02115310519F04217530718F45A
:100F30009A01BE01DF01EF010280F381E02DDCCFD9
:100F40002115310509F1281B390B2430310590F4A6
:100F500012968D919C9113976115710521F0FB01FB
:100F60009383828304C090934D0180934C01FD01D3
:100F7000329644C0FD01E20FF31F819391932250FA
:100F800031092D933C933AC020914A0130914B0195
:100F9000232B41F4209165003091660030934B0182
:100FA00020934A012091630030916400211531059E
:100FB00041F42DB73EB74091670050916800241B63
:100FC000350BE0914A01F0914B01E217F307A0F4D1
:100FD0002E1B3F0B2817390778F0AC014E5F5F4F8F
:100FE0002417350748F04E0F5F1F50934B01409375
:100FF0004A018193919302C0E0E0F0E0CF01DF91DC
:10100000CF9108950F931F93CF93DF93009709F427
:101010008CC0FC0132971382128200914C01109116
:101020004D010115110581F420813181820F931F3B
:1010300020914A0130914B012817390779F5F09337
:101040004B01E0934A0171C0D80140E050E0AE1777
:10105000BF0750F412962D913C911397AD012115C5
:10106000310509F1D901F3CF9D01DA0133832283E0
:1010700060817181860F971F8217930769F4EC01D5
:1010800028813981260F371F2E5F3F4F3183208300
:101090008A819B8193838283452B29F4F0934D01B0
:1010A000E0934C0142C01396FC93EE931297ED012E
:1010B000499159919E01240F351FE217F30771F4EE
:1010C00080819181840F951F029611969C938E9337
:1010D0008281938113969C938E931297E0E0F0E0C7
:1010E000D80112968D919C911397009719F0F801F1
:1010F0008C01F6CF8D919C9198012E5F3F4F820F0E
:10110000931F20914A0130914B012817390769F448
:10111000309729F410924D0110924C0102C01382B5
:10112000128210934B0100934A01DF91CF911F91DE
:101130000F910895A0E0B0E0EFE9F8E04BCEEC01AC
:10114000009719F4CB01C9DEB4C0FC01E60FF71F0C
:101150009C0122503109E217F30708F4A8C0D90115
:101160000D911C91119706171707A8F0053011056E
:1011700008F49BC0C80104978617970708F495C028
:1011800002501109061B170B019311936D937C9369
:10119000CF0138DF8AC05B01A01AB10A4C01800E72
:1011A000911EA0914C01B0914D0140E050E0E12C26
:1011B000F12C109709F44AC0A815B905D1F56D9026
:1011C0007C901197630182E0C80ED11CCA14DB0425
:1011D00080F1A3014A195B096A0182E0C80ED11CA3
:1011E0001296BC9012971396AC91B5E0CB16D10431
:1011F00040F0B282A38351834083D9016D937C93E5
:101200000AC00E5F1F4FC301800F911FF901918328
:101210008083EB2DFA2FE114F10431F0D7011396FE
:10122000FC93EE93129741C0F0934D01E0934C0173
:101230003CC08D919C9111974817590708F4AC0157
:101240007D0112960D90BC91A02DB3CF80914A01E3
:1012500090914B0188159905E1F446175707C8F49A
:101260008091630090916400009741F48DB79EB720
:101270004091670050916800841B950BE817F907AF
:10128000B0F4F0934B01E0934A01F901718360835C
:101290000CC0CB0122DE7C01009749F0A801BE0101
:1012A00010D0CE01AFDEC70104C0CE0102C080E085
:1012B00090E0CDB7DEB7EEE0A9CD81E090E0F89404
:1012C00010C0FB01DC0102C001900D924150504062
:1012D000D8F70895FB01DC0101900D920020E1F7A1
:0612E0000895F894FFCF11
:1012E600F401FF00004E018000000000002303A06F
:1012F60002ED02CB02DF0269030D0A005379737413
:10130600656D20526561647921000A4E6577204635
:061316007265713A20002F
:00000001FF
