:1000000040C064C063C062C061C060C05FC05EC009
:100010005DC04FC25BC0BCC296C258C057C056C07C
:1000200055C054C053C000000000370034003100F8
:1000300000000000380035003200000000003600EB
:100040003300300004040404040404040202020225
:10005000020203030303030301020408102040808B
:100060000102040810200102040810200000000012
:100070000000000000030406000000000000000073
:10008000880411241FBECFE5D4E0DEBFCDBF10E051
:10009000A0E6B0E0E2ECF9E002C005900D92A437D2
:1000A000B107D9F721E0A4E7B0E001C01D92A23268
:1000B000B207E1F710E0C1E4D0E003C02197FE01F0
:1000C00074D4C034D107D1F795D279C499CF843094
:1000D00039F0863049F0833051F48FB58F7702C004
:1000E0008FB58F7D8FBD089585B58F7D85BD0895B2
:1000F000CF93DF93282F30E0F901E459FF4F84912B
:10010000F901E85AFF4FD491F901EC5BFF4FC4911C
:10011000CC2389F08111DBDFEC2FF0E0EE0FFF1F25
:10012000E65CFF4FA591B491EC91ED2381E090E066
:1001300021F480E002C080E090E0DF91CF9108954B
:100140001F93CF93DF93282F30E0F901E459FF4F3D
:100150008491F901E85AFF4FD491F901EC5BFF4F0C
:10016000C491CC23C1F0162F8111B1DFEC2FF0E048
:10017000EE0FFF1FE05DFF4FA591B4918FB7F8948C
:10018000111105C09C91ED2FE095E92302C0EC917F
:10019000ED2BEC938FBFDF91CF911F910895CF93FB
:1001A000DF9390E0FC01E85AFF4F2491FC01EC5BE7
:1001B000FF4F8491882361F190E0880F991FFC0123
:1001C000EA5DFF4FC591D491FC01E05DFF4FA59121
:1001D000B491611109C09FB7F8948881209582235A
:1001E0008883EC912E230BC0623061F49FB7F894A2
:1001F0003881822F809583238883EC912E2B2C933A
:100200009FBF06C08FB7F894E8812E2B28838FBF3D
:10021000DF91CF9108952FB7F8946091810070918C
:10022000820080918300909184002FBF0895CF9227
:10023000DF92EF92FF920F931F93CF93DF936C01A6
:100240007A018B01C0E0D0E0CE15DF0589F0D8013E
:100250006D918D01D601ED91FC910190F081E02D21
:10026000C6010995892B11F47E0102C02196ECCFBD
:10027000C701DF91CF911F910F91FF90EF90DF9019
:10028000CF900895FC01918D828D981761F0828D39
:10029000DF01A80FB11D5D968C91928D9F5F9F73BA
:1002A000928F90E008958FEF9FEF0895FC01918D5C
:1002B000828D981731F0828DE80FF11D858D90E0C9
:1002C00008958FEF9FEF0895FC01918D228D892F66
:1002D00090E0805C9F4F821B91098F73992708954E
:1002E00085E890E0F1DF21E0892B09F420E0822FFE
:1002F0000895FC01848DDF01A80FB11DA35ABF4FE3
:100300002C91848D90E001968F739927848FA68914
:10031000B7892C93A089B1898C9180648C93938D3B
:10032000848D981306C00288F389E02D80818F7D2B
:1003300080830895EF92FF920F931F93CF93DF93E3
:10034000EC0181E0888F9B8D8C8D981305C0E88926
:10035000F989808185FD23C0F62E0B8D10E00F5F9B
:100360001F4F0F731127E02E8C8DE8120BC00FB6B4
:1003700007FCFACFE889F989808185FFF5CFCE01A6
:10038000B8DFF2CF8B8DFE01E80FF11DE35AFF4F6E
:10039000F0820B8FEA89FB898081806207C0EE8939
:1003A000FF896083E889F98980818064808381E0A6
:1003B00090E0DF91CF911F910F91FF90EF90089502
:1003C000CF93DF93EC01888D8823C1F0EA89FB8904
:1003D000808185FD05C0A889B9898C9186FD0EC0F4
:1003E0000FB607FCF5CF808185FFF2CFA889B989C8
:1003F0008C9185FFEDCFCE017CDFE8CFDF91CF91EF
:10040000089580E090E0892B19F06ADF8111F8CD22
:1004100008958F929F92AF92BF920F931F93CF93A5
:10042000DF93CDB7DEB7A1970FB6F894DEBF0FBE4E
:10043000CDBF19A2423008F44AE08E010F5D1F4F74
:10044000842E912CA12CB12CA50194018CD2E62FE5
:10045000B901CA0101501109EA3014F4E05D01C08C
:10046000E95CD801EC93232B242B252B69F701158C
:10047000110569F0F80101900020E9F73197AF010B
:10048000401B510BB80185E890E0D1DE02C080E04E
:1004900090E0A1960FB6F894DEBF0FBECDBFDF91FE
:1004A000CF911F910F91BF90AF909F908F90089523
:1004B00082D21F920F920FB60F9211242F933F9367
:1004C0008F939F93AF93BF9380918100909182000F
:1004D000A0918300B09184003091800023E0230F2D
:1004E0002D3720F40196A11DB11D05C026E8230F6C
:1004F0000296A11DB11D20938000809381009093EE
:100500008200A0938300B093840080917C0090913E
:100510007D00A0917E00B0917F000196A11DB11DCC
:1005200080937C0090937D00A0937E00B0937F0029
:10053000BF91AF919F918F913F912F910F900FBEDF
:100540000F901F9018951F920F920FB60F921124C3
:100550002F933F934F935F936F937F938F939F93CB
:10056000AF93BF93EF93FF9385E890E0C2DEFF91D6
:10057000EF91BF91AF919F918F917F916F915F911B
:100580004F913F912F910F900FBE0F901F90189594
:100590001F920F920FB60F9211242F938F939F9358
:1005A000EF93FF93E0919500F09196008081E091A8
:1005B0009B00F0919C0082FD12C0908180919E0072
:1005C0008F5F8F7320919F00821751F0E0919E0002
:1005D000F0E0EB57FF4F958F80939E0001C0808124
:1005E000FF91EF919F918F912F910F900FBE0F90E0
:1005F0001F901895789483B7826083BF83B781601A
:1006000083BF89B7816089BF1EBC8EB582608EBDF5
:100610008EB581608EBD8FB581608FBD85B58460DC
:1006200085BD85B5806485BD329A319A309A379AF6
:100630001AB861E08CE0B3DD60E088E0B0DD61E035
:100640008DE0ADDD61E082E0AADDE0919500F09102
:10065000960082E08083E0919100F09192001082F8
:10066000E0919300F09194008FEC808310929D00B4
:10067000E0919900F0919A0086E88083E0919700DC
:10068000F0919800808180618083E0919700F091E3
:100690009800808188608083E0919700F0919800B5
:1006A000808180688083E0919700F091980080813C
:1006B0008F7D8083C1E088E01BDD21E0892B09F478
:1006C00020E020937B0080917A002223C1F08111E9
:1006D0002DC0A1DDC0907600D0907700E09078002A
:1006E000F0907900DC01CB018C199D09AE09BF099E
:1006F00087399105A105B10508F099C017C0882375
:10070000A9F089DDC0907600D0907700E090780065
:10071000F0907900DC01CB018C199D09AE09BF096D
:100720008A389240A105B10508F4BFC080917400D9
:10073000909175000197A9F46EDDC0907600D0907D
:100740007700E0907800F0907900DC01CB018C1903
:100750009D09AE09BF098F359140A105B10508F08B
:1007600072C080917400909175000297A1F48CE0A2
:10077000BFDC61E0892B09F060E08CE0E1DC1092E5
:100780007600109277001092780010927900109203
:1007900075001092740090917B0080917A009923EB
:1007A000C1F0811122C037DDC0907600D090770073
:1007B000E0907800F0907900DC01CB018C199D0964
:1007C000AE09BF0987399105A105B10508F050C0F0
:1007D0000CC0882351F010927A001092760010928B
:1007E0007700109278001092790015DDC0907600A5
:1007F000D0907700E0907800F0907900DC01CB0198
:100800008C199D09AE09BF09803D9740A105B1052E
:1008100060F001DDDC01CB018C199D09AE09BF0937
:10082000833B9C40A105B10578F1EBDD44CFC0933B
:100830007A00F1DC60937600709377008093780003
:100840009093790073CF8DE053DC61E0892B09F040
:1008500060E08DE075DC10927600109277001092C7
:10086000780010927900109275001092740079CF80
:10087000C0937A00D0DC6093760070937700809309
:10088000780090937900B1CF82E032DC61E0892B6F
:1008900009F060E082E054DC10927600109277005C
:1008A0001092780010927900C0CF10927A00C09018
:1008B0007400D09075008FEFC81AD80AD0927500D6
:1008C000C09274000D2C000CEE08FF08F7FE14C057
:1008D000E0918500F09186000190F081E02D6DE2BD
:1008E00085E890E0099566277727CB016C197D098B
:1008F0008E099F094AE003C04AE0C701B60189DDBD
:1009000042E050E060E770E085E890E090DC0ECFD8
:10091000E5E8F0E01382128288EE93E0A0E0B0E018
:1009200084839583A683B78384E690E09183808354
:1009300080E490E09587848729E230E03787268736
:100940002BE230E0318B208B2AE230E0338B228B9C
:10095000958B848B8CE290E0978B868B118E128E18
:10096000138E148E0895A1E21A2EAA1BBB1BFD0143
:100970000DC0AA1FBB1FEE1FFF1FA217B307E4077E
:10098000F50720F0A21BB30BE40BF50B661F771FD6
:10099000881F991F1A9469F76095709580959095B6
:1009A0009B01AC01BD01CF010895EE0FFF1F059023
:1009B000F491E02D099481E090E0F89400C0F8945F
:0209C000FFCF67
:1009C200000000009A011701640142015601E00192
:0409D2000D0A00000A
:00000001FF
